{
  "_format": "hh-sol-artifact-1",
  "contractName": "Splitwise",
  "sourceName": "contracts/mycontract.sol",
  "abi": [
    {
      "inputs": [
        {
          "internalType": "address",
          "name": "creditor",
          "type": "address"
        },
        {
          "internalType": "uint32",
          "name": "amount",
          "type": "uint32"
        }
      ],
      "name": "add_IOU",
      "outputs": [],
      "stateMutability": "nonpayable",
      "type": "function"
    },
    {
      "inputs": [
        {
          "internalType": "address",
          "name": "debtor",
          "type": "address"
        },
        {
          "internalType": "address",
          "name": "creditor",
          "type": "address"
        },
        {
          "internalType": "uint32",
          "name": "amount",
          "type": "uint32"
        }
      ],
      "name": "add_IOU_sub",
      "outputs": [],
      "stateMutability": "nonpayable",
      "type": "function"
    },
    {
      "inputs": [
        {
          "internalType": "address",
          "name": "debtor",
          "type": "address"
        },
        {
          "internalType": "address",
          "name": "creditor",
          "type": "address"
        },
        {
          "internalType": "uint32",
          "name": "amount",
          "type": "uint32"
        }
      ],
      "name": "add_IOU_user",
      "outputs": [],
      "stateMutability": "nonpayable",
      "type": "function"
    },
    {
      "inputs": [
        {
          "internalType": "address",
          "name": "",
          "type": "address"
        },
        {
          "internalType": "address",
          "name": "",
          "type": "address"
        }
      ],
      "name": "debt",
      "outputs": [
        {
          "internalType": "uint32",
          "name": "",
          "type": "uint32"
        }
      ],
      "stateMutability": "view",
      "type": "function"
    },
    {
      "inputs": [],
      "name": "getUsers",
      "outputs": [
        {
          "internalType": "address[]",
          "name": "_users",
          "type": "address[]"
        }
      ],
      "stateMutability": "view",
      "type": "function"
    },
    {
      "inputs": [
        {
          "internalType": "address",
          "name": "debtor",
          "type": "address"
        },
        {
          "internalType": "address",
          "name": "creditor",
          "type": "address"
        }
      ],
      "name": "lookup",
      "outputs": [
        {
          "internalType": "uint32",
          "name": "ret",
          "type": "uint32"
        }
      ],
      "stateMutability": "view",
      "type": "function"
    },
    {
      "inputs": [
        {
          "internalType": "uint256",
          "name": "",
          "type": "uint256"
        }
      ],
      "name": "users",
      "outputs": [
        {
          "internalType": "address",
          "name": "",
          "type": "address"
        }
      ],
      "stateMutability": "view",
      "type": "function"
    }
  ],
  "bytecode": "0x608060405234801561001057600080fd5b50610ab0806100206000396000f3fe608060405234801561001057600080fd5b506004361061007c5760003560e01c80637a81b7321161005b5780637a81b732146100ff5780638be7bfe71461011b578063d12099e414610137578063d449300d146101535761007c565b8062ce8e3e14610081578063365b98b21461009f578063713584a6146100cf575b600080fd5b610089610183565b604051610096919061071c565b60405180910390f35b6100b960048036038101906100b49190610779565b610288565b6040516100c691906107b5565b60405180910390f35b6100e960048036038101906100e491906107fc565b6102c7565b6040516100f6919061085b565b60405180910390f35b610119600480360381019061011491906108a2565b61035d565b005b610135600480360381019061013091906108a2565b61041a565b005b610151600480360381019061014c91906108f5565b6104e9565b005b61016d600480360381019061016891906107fc565b6104f8565b60405161017a919061085b565b60405180910390f35b606060018054905067ffffffffffffffff8111156101a4576101a3610935565b5b6040519080825280602002602001820160405280156101d25781602001602082028036833780820191505090505b50905060005b60018054905081101561028457600181815481106101f9576101f8610964565b5b9060005260206000200160009054906101000a900473ffffffffffffffffffffffffffffffffffffffff1682828151811061023757610236610964565b5b602002602001019073ffffffffffffffffffffffffffffffffffffffff16908173ffffffffffffffffffffffffffffffffffffffff1681525050808061027c906109c2565b9150506101d8565b5090565b6001818154811061029857600080fd5b906000526020600020016000915054906101000a900473ffffffffffffffffffffffffffffffffffffffff1681565b60008060008473ffffffffffffffffffffffffffffffffffffffff1673ffffffffffffffffffffffffffffffffffffffff16815260200190815260200160002060008373ffffffffffffffffffffffffffffffffffffffff1673ffffffffffffffffffffffffffffffffffffffff16815260200190815260200160002060009054906101000a900463ffffffff16905092915050565b806000808573ffffffffffffffffffffffffffffffffffffffff1673ffffffffffffffffffffffffffffffffffffffff16815260200190815260200160002060008473ffffffffffffffffffffffffffffffffffffffff1673ffffffffffffffffffffffffffffffffffffffff16815260200190815260200160002060008282829054906101000a900463ffffffff166103f79190610a0a565b92506101000a81548163ffffffff021916908363ffffffff160217905550505050565b806000808573ffffffffffffffffffffffffffffffffffffffff1673ffffffffffffffffffffffffffffffffffffffff16815260200190815260200160002060008473ffffffffffffffffffffffffffffffffffffffff1673ffffffffffffffffffffffffffffffffffffffff16815260200190815260200160002060008282829054906101000a900463ffffffff166104b49190610a42565b92506101000a81548163ffffffff021916908363ffffffff1602179055506104db8261052a565b6104e48361052a565b505050565b6104f433838361041a565b5050565b60006020528160005260406000206020528060005260406000206000915091509054906101000a900463ffffffff1681565b60005b6001805490508110156105c4578173ffffffffffffffffffffffffffffffffffffffff166001828154811061056557610564610964565b5b9060005260206000200160009054906101000a900473ffffffffffffffffffffffffffffffffffffffff1673ffffffffffffffffffffffffffffffffffffffff16036105b15750610629565b80806105bc906109c2565b91505061052d565b506001819080600181540180825580915050600190039060005260206000200160009091909190916101000a81548173ffffffffffffffffffffffffffffffffffffffff021916908373ffffffffffffffffffffffffffffffffffffffff1602179055505b50565b600081519050919050565b600082825260208201905092915050565b6000819050602082019050919050565b600073ffffffffffffffffffffffffffffffffffffffff82169050919050565b600061068382610658565b9050919050565b61069381610678565b82525050565b60006106a5838361068a565b60208301905092915050565b6000602082019050919050565b60006106c98261062c565b6106d38185610637565b93506106de83610648565b8060005b8381101561070f5781516106f68882610699565b9750610701836106b1565b9250506001810190506106e2565b5085935050505092915050565b6000602082019050818103600083015261073681846106be565b905092915050565b600080fd5b6000819050919050565b61075681610743565b811461076157600080fd5b50565b6000813590506107738161074d565b92915050565b60006020828403121561078f5761078e61073e565b5b600061079d84828501610764565b91505092915050565b6107af81610678565b82525050565b60006020820190506107ca60008301846107a6565b92915050565b6107d981610678565b81146107e457600080fd5b50565b6000813590506107f6816107d0565b92915050565b600080604083850312156108135761081261073e565b5b6000610821858286016107e7565b9250506020610832858286016107e7565b9150509250929050565b600063ffffffff82169050919050565b6108558161083c565b82525050565b6000602082019050610870600083018461084c565b92915050565b61087f8161083c565b811461088a57600080fd5b50565b60008135905061089c81610876565b92915050565b6000806000606084860312156108bb576108ba61073e565b5b60006108c9868287016107e7565b93505060206108da868287016107e7565b92505060406108eb8682870161088d565b9150509250925092565b6000806040838503121561090c5761090b61073e565b5b600061091a858286016107e7565b925050602061092b8582860161088d565b9150509250929050565b7f4e487b7100000000000000000000000000000000000000000000000000000000600052604160045260246000fd5b7f4e487b7100000000000000000000000000000000000000000000000000000000600052603260045260246000fd5b7f4e487b7100000000000000000000000000000000000000000000000000000000600052601160045260246000fd5b60006109cd82610743565b91507fffffffffffffffffffffffffffffffffffffffffffffffffffffffffffffffff82036109ff576109fe610993565b5b600182019050919050565b6000610a158261083c565b9150610a208361083c565b9250828203905063ffffffff811115610a3c57610a3b610993565b5b92915050565b6000610a4d8261083c565b9150610a588361083c565b9250828201905063ffffffff811115610a7457610a73610993565b5b9291505056fea26469706673582212203a01c7ae55b419a5b33ab73e31adc72c5f2202ef6af9848edbb3ab680c84ba8c64736f6c63430008110033",
  "linkReferences": {},
  "deployedLinkReferences": {}
}